{
  "contractName": "Marketplace",
  "abi": [
    {
      "inputs": [
        {
          "internalType": "address",
          "name": "nftAddress",
          "type": "address"
        },
        {
          "internalType": "uint256",
          "name": "tokenId",
          "type": "uint256"
        }
      ],
      "name": "AlreadyListed",
      "type": "error"
    },
    {
      "inputs": [],
      "name": "NoProceeds",
      "type": "error"
    },
    {
      "inputs": [],
      "name": "NotApprovedForMarketplace",
      "type": "error"
    },
    {
      "inputs": [
        {
          "internalType": "address",
          "name": "nftAddress",
          "type": "address"
        },
        {
          "internalType": "uint256",
          "name": "tokenId",
          "type": "uint256"
        }
      ],
      "name": "NotListed",
      "type": "error"
    },
    {
      "inputs": [],
      "name": "NotOwner",
      "type": "error"
    },
    {
      "inputs": [],
      "name": "PriceMustBeAboveZero",
      "type": "error"
    },
    {
      "inputs": [
        {
          "internalType": "address",
          "name": "nftAddress",
          "type": "address"
        },
        {
          "internalType": "uint256",
          "name": "tokenId",
          "type": "uint256"
        },
        {
          "internalType": "uint256",
          "name": "price",
          "type": "uint256"
        }
      ],
      "name": "PriceNotMet",
      "type": "error"
    },
    {
      "anonymous": false,
      "inputs": [
        {
          "indexed": true,
          "internalType": "address",
          "name": "buyer",
          "type": "address"
        },
        {
          "indexed": true,
          "internalType": "address",
          "name": "nftAddress",
          "type": "address"
        },
        {
          "indexed": true,
          "internalType": "uint256",
          "name": "tokenId",
          "type": "uint256"
        },
        {
          "indexed": false,
          "internalType": "uint256",
          "name": "price",
          "type": "uint256"
        }
      ],
      "name": "ItemBought",
      "type": "event"
    },
    {
      "anonymous": false,
      "inputs": [
        {
          "indexed": true,
          "internalType": "address",
          "name": "seller",
          "type": "address"
        },
        {
          "indexed": true,
          "internalType": "address",
          "name": "nftAddress",
          "type": "address"
        },
        {
          "indexed": true,
          "internalType": "uint256",
          "name": "tokenId",
          "type": "uint256"
        }
      ],
      "name": "ItemCanceled",
      "type": "event"
    },
    {
      "anonymous": false,
      "inputs": [
        {
          "indexed": true,
          "internalType": "address",
          "name": "seller",
          "type": "address"
        },
        {
          "indexed": true,
          "internalType": "address",
          "name": "nftAddress",
          "type": "address"
        },
        {
          "indexed": true,
          "internalType": "uint256",
          "name": "tokenId",
          "type": "uint256"
        },
        {
          "indexed": false,
          "internalType": "uint256",
          "name": "price",
          "type": "uint256"
        }
      ],
      "name": "ItemListed",
      "type": "event"
    },
    {
      "inputs": [
        {
          "internalType": "address",
          "name": "nftAddress",
          "type": "address"
        },
        {
          "internalType": "uint256",
          "name": "tokenId",
          "type": "uint256"
        },
        {
          "internalType": "uint256",
          "name": "price",
          "type": "uint256"
        }
      ],
      "name": "listItem",
      "outputs": [],
      "stateMutability": "nonpayable",
      "type": "function"
    },
    {
      "inputs": [
        {
          "internalType": "address",
          "name": "nftAddress",
          "type": "address"
        },
        {
          "internalType": "uint256",
          "name": "tokenId",
          "type": "uint256"
        }
      ],
      "name": "cancelListing",
      "outputs": [],
      "stateMutability": "nonpayable",
      "type": "function"
    },
    {
      "inputs": [
        {
          "internalType": "address",
          "name": "nftAddress",
          "type": "address"
        },
        {
          "internalType": "uint256",
          "name": "tokenId",
          "type": "uint256"
        }
      ],
      "name": "buyItem",
      "outputs": [],
      "stateMutability": "payable",
      "type": "function"
    },
    {
      "inputs": [
        {
          "internalType": "address",
          "name": "nftAddress",
          "type": "address"
        },
        {
          "internalType": "uint256",
          "name": "tokenId",
          "type": "uint256"
        },
        {
          "internalType": "uint256",
          "name": "newPrice",
          "type": "uint256"
        }
      ],
      "name": "updateListing",
      "outputs": [],
      "stateMutability": "nonpayable",
      "type": "function"
    },
    {
      "inputs": [],
      "name": "withdrawProceeds",
      "outputs": [],
      "stateMutability": "nonpayable",
      "type": "function"
    },
    {
      "inputs": [
        {
          "internalType": "address",
          "name": "nftAddress",
          "type": "address"
        },
        {
          "internalType": "uint256",
          "name": "tokenId",
          "type": "uint256"
        }
      ],
      "name": "getListItem",
      "outputs": [
        {
          "components": [
            {
              "internalType": "uint256",
              "name": "price",
              "type": "uint256"
            },
            {
              "internalType": "address",
              "name": "seller",
              "type": "address"
            }
          ],
          "internalType": "struct Marketplace.Listing",
          "name": "",
          "type": "tuple"
        }
      ],
      "stateMutability": "view",
      "type": "function"
    },
    {
      "inputs": [
        {
          "internalType": "address",
          "name": "seller",
          "type": "address"
        }
      ],
      "name": "getProceeds",
      "outputs": [
        {
          "internalType": "uint256",
          "name": "",
          "type": "uint256"
        }
      ],
      "stateMutability": "view",
      "type": "function"
    }
  ],
  "bytecode": "0x608060405234801561001057600080fd5b506001600081905550611772806100286000396000f3fe6080604052600436106100705760003560e01c80639038e6931161004e5780639038e693146101185780639f37092a1461012f578063b2ddee061461014b578063f772adf11461017457610070565b806330cfeda91461007557806348fcf68b146100b257806389bfd38f146100ef575b600080fd5b34801561008157600080fd5b5061009c6004803603810190610097919061133a565b61019d565b6040516100a99190611380565b60405180910390f35b3480156100be57600080fd5b506100d960048036038101906100d491906113c7565b6101e6565b6040516100e69190611454565b60405180910390f35b3480156100fb57600080fd5b506101166004803603810190610111919061146f565b6102b1565b005b34801561012457600080fd5b5061012d61070b565b005b610149600480360381019061014491906113c7565b61087e565b005b34801561015757600080fd5b50610172600480360381019061016d91906113c7565b610cb0565b005b34801561018057600080fd5b5061019b6004803603810190610196919061146f565b610f90565b005b6000600260008373ffffffffffffffffffffffffffffffffffffffff1673ffffffffffffffffffffffffffffffffffffffff168152602001908152602001600020549050919050565b6101ee6112a7565b600160008473ffffffffffffffffffffffffffffffffffffffff1673ffffffffffffffffffffffffffffffffffffffff1681526020019081526020016000206000838152602001908152602001600020604051806040016040529081600082015481526020016001820160009054906101000a900473ffffffffffffffffffffffffffffffffffffffff1673ffffffffffffffffffffffffffffffffffffffff1673ffffffffffffffffffffffffffffffffffffffff1681525050905092915050565b8282336000600160008573ffffffffffffffffffffffffffffffffffffffff1673ffffffffffffffffffffffffffffffffffffffff1681526020019081526020016000206000848152602001908152602001600020604051806040016040529081600082015481526020016001820160009054906101000a900473ffffffffffffffffffffffffffffffffffffffff1673ffffffffffffffffffffffffffffffffffffffff1673ffffffffffffffffffffffffffffffffffffffff168152505090506000816000015111156103bf5783836040517f4a5568d50000000000000000000000000000000000000000000000000000000081526004016103b69291906114d1565b60405180910390fd5b868633600083905060008173ffffffffffffffffffffffffffffffffffffffff16636352211e856040518263ffffffff1660e01b81526004016104029190611380565b602060405180830381865afa15801561041f573d6000803e3d6000fd5b505050506040513d601f19601f82011682018060405250810190610443919061150f565b90508073ffffffffffffffffffffffffffffffffffffffff168373ffffffffffffffffffffffffffffffffffffffff16146104aa576040517f30cd747100000000000000000000000000000000000000000000000000000000815260040160405180910390fd5b60008a116104e4576040517fe1abbfc500000000000000000000000000000000000000000000000000000000815260040160405180910390fd5b60008c90503073ffffffffffffffffffffffffffffffffffffffff168173ffffffffffffffffffffffffffffffffffffffff1663081812fc8e6040518263ffffffff1660e01b81526004016105399190611380565b602060405180830381865afa158015610556573d6000803e3d6000fd5b505050506040513d601f19601f8201168201806040525081019061057a919061150f565b73ffffffffffffffffffffffffffffffffffffffff16146105c7576040517f4be3a2c500000000000000000000000000000000000000000000000000000000815260040160405180910390fd5b60405180604001604052808c81526020013373ffffffffffffffffffffffffffffffffffffffff16815250600160008f73ffffffffffffffffffffffffffffffffffffffff1673ffffffffffffffffffffffffffffffffffffffff16815260200190815260200160002060008e81526020019081526020016000206000820151816000015560208201518160010160006101000a81548173ffffffffffffffffffffffffffffffffffffffff021916908373ffffffffffffffffffffffffffffffffffffffff1602179055509050508b8d73ffffffffffffffffffffffffffffffffffffffff163373ffffffffffffffffffffffffffffffffffffffff167fd547e933094f12a9159076970143ebe73234e64480317844b0dcb36117116de48e6040516106f49190611380565b60405180910390a450505050505050505050505050565b6000600260003373ffffffffffffffffffffffffffffffffffffffff1673ffffffffffffffffffffffffffffffffffffffff16815260200190815260200160002054905060008111610789576040517fc4d8fa8700000000000000000000000000000000000000000000000000000000815260040160405180910390fd5b6000600260003373ffffffffffffffffffffffffffffffffffffffff1673ffffffffffffffffffffffffffffffffffffffff1681526020019081526020016000208190555060003373ffffffffffffffffffffffffffffffffffffffff16826040516107f49061156d565b60006040518083038185875af1925050503d8060008114610831576040519150601f19603f3d011682016040523d82523d6000602084013e610836565b606091505b505090508061087a576040517f08c379a0000000000000000000000000000000000000000000000000000000008152600401610871906115df565b60405180910390fd5b5050565b81816000600160008473ffffffffffffffffffffffffffffffffffffffff1673ffffffffffffffffffffffffffffffffffffffff1681526020019081526020016000206000838152602001908152602001600020604051806040016040529081600082015481526020016001820160009054906101000a900473ffffffffffffffffffffffffffffffffffffffff1673ffffffffffffffffffffffffffffffffffffffff1673ffffffffffffffffffffffffffffffffffffffff16815250509050600081600001511161098a5782826040517f6831488c0000000000000000000000000000000000000000000000000000000081526004016109819291906114d1565b60405180910390fd5b6002600054036109cf576040517f08c379a00000000000000000000000000000000000000000000000000000000081526004016109c69061164b565b60405180910390fd5b60026000819055506000600160008773ffffffffffffffffffffffffffffffffffffffff1673ffffffffffffffffffffffffffffffffffffffff1681526020019081526020016000206000868152602001908152602001600020604051806040016040529081600082015481526020016001820160009054906101000a900473ffffffffffffffffffffffffffffffffffffffff1673ffffffffffffffffffffffffffffffffffffffff1673ffffffffffffffffffffffffffffffffffffffff168152505090508060000151341015610ae757858582600001516040517f7c934565000000000000000000000000000000000000000000000000000000008152600401610ade9392919061166b565b60405180910390fd5b3460026000836020015173ffffffffffffffffffffffffffffffffffffffff1673ffffffffffffffffffffffffffffffffffffffff1681526020019081526020016000206000828254610b3a91906116d1565b92505081905550600160008773ffffffffffffffffffffffffffffffffffffffff1673ffffffffffffffffffffffffffffffffffffffff16815260200190815260200160002060008681526020019081526020016000206000808201600090556001820160006101000a81549073ffffffffffffffffffffffffffffffffffffffff021916905550508573ffffffffffffffffffffffffffffffffffffffff166342842e0e826020015133886040518463ffffffff1660e01b8152600401610c0493929190611705565b600060405180830381600087803b158015610c1e57600080fd5b505af1158015610c32573d6000803e3d6000fd5b50505050848673ffffffffffffffffffffffffffffffffffffffff163373ffffffffffffffffffffffffffffffffffffffff167f263223b1dd81e51054a4e6f791d45a4a1ddb4aadcd93a2dfd892615c3fdac1878460000151604051610c989190611380565b60405180910390a45060016000819055505050505050565b818133600083905060008173ffffffffffffffffffffffffffffffffffffffff16636352211e856040518263ffffffff1660e01b8152600401610cf39190611380565b602060405180830381865afa158015610d10573d6000803e3d6000fd5b505050506040513d601f19601f82011682018060405250810190610d34919061150f565b90508073ffffffffffffffffffffffffffffffffffffffff168373ffffffffffffffffffffffffffffffffffffffff1614610d9b576040517f30cd747100000000000000000000000000000000000000000000000000000000815260040160405180910390fd5b86866000600160008473ffffffffffffffffffffffffffffffffffffffff1673ffffffffffffffffffffffffffffffffffffffff1681526020019081526020016000206000838152602001908152602001600020604051806040016040529081600082015481526020016001820160009054906101000a900473ffffffffffffffffffffffffffffffffffffffff1673ffffffffffffffffffffffffffffffffffffffff1673ffffffffffffffffffffffffffffffffffffffff168152505090506000816000015111610ea75782826040517f6831488c000000000000000000000000000000000000000000000000000000008152600401610e9e9291906114d1565b60405180910390fd5b600160008b73ffffffffffffffffffffffffffffffffffffffff1673ffffffffffffffffffffffffffffffffffffffff16815260200190815260200160002060008a81526020019081526020016000206000808201600090556001820160006101000a81549073ffffffffffffffffffffffffffffffffffffffff02191690555050888a73ffffffffffffffffffffffffffffffffffffffff163373ffffffffffffffffffffffffffffffffffffffff167f9ba1a3cb55ce8d63d072a886f94d2a744f50cddf82128e897d0661f5ec62315860405160405180910390a450505050505050505050565b82826000600160008473ffffffffffffffffffffffffffffffffffffffff1673ffffffffffffffffffffffffffffffffffffffff1681526020019081526020016000206000838152602001908152602001600020604051806040016040529081600082015481526020016001820160009054906101000a900473ffffffffffffffffffffffffffffffffffffffff1673ffffffffffffffffffffffffffffffffffffffff1673ffffffffffffffffffffffffffffffffffffffff16815250509050600081600001511161109c5782826040517f6831488c0000000000000000000000000000000000000000000000000000000081526004016110939291906114d1565b60405180910390fd5b6002600054036110e1576040517f08c379a00000000000000000000000000000000000000000000000000000000081526004016110d89061164b565b60405180910390fd5b6002600081905550858533600083905060008173ffffffffffffffffffffffffffffffffffffffff16636352211e856040518263ffffffff1660e01b815260040161112c9190611380565b602060405180830381865afa158015611149573d6000803e3d6000fd5b505050506040513d601f19601f8201168201806040525081019061116d919061150f565b90508073ffffffffffffffffffffffffffffffffffffffff168373ffffffffffffffffffffffffffffffffffffffff16146111d4576040517f30cd747100000000000000000000000000000000000000000000000000000000815260040160405180910390fd5b88600160008d73ffffffffffffffffffffffffffffffffffffffff1673ffffffffffffffffffffffffffffffffffffffff16815260200190815260200160002060008c815260200190815260200160002060000181905550898b73ffffffffffffffffffffffffffffffffffffffff163373ffffffffffffffffffffffffffffffffffffffff167fd547e933094f12a9159076970143ebe73234e64480317844b0dcb36117116de48c60405161128a9190611380565b60405180910390a450505050506001600081905550505050505050565b604051806040016040528060008152602001600073ffffffffffffffffffffffffffffffffffffffff1681525090565b600080fd5b600073ffffffffffffffffffffffffffffffffffffffff82169050919050565b6000611307826112dc565b9050919050565b611317816112fc565b811461132257600080fd5b50565b6000813590506113348161130e565b92915050565b6000602082840312156113505761134f6112d7565b5b600061135e84828501611325565b91505092915050565b6000819050919050565b61137a81611367565b82525050565b60006020820190506113956000830184611371565b92915050565b6113a481611367565b81146113af57600080fd5b50565b6000813590506113c18161139b565b92915050565b600080604083850312156113de576113dd6112d7565b5b60006113ec85828601611325565b92505060206113fd858286016113b2565b9150509250929050565b61141081611367565b82525050565b61141f816112fc565b82525050565b60408201600082015161143b6000850182611407565b50602082015161144e6020850182611416565b50505050565b60006040820190506114696000830184611425565b92915050565b600080600060608486031215611488576114876112d7565b5b600061149686828701611325565b93505060206114a7868287016113b2565b92505060406114b8868287016113b2565b9150509250925092565b6114cb816112fc565b82525050565b60006040820190506114e660008301856114c2565b6114f36020830184611371565b9392505050565b6000815190506115098161130e565b92915050565b600060208284031215611525576115246112d7565b5b6000611533848285016114fa565b91505092915050565b600081905092915050565b50565b600061155760008361153c565b915061156282611547565b600082019050919050565b60006115788261154a565b9150819050919050565b600082825260208201905092915050565b7f5472616e73666572206661696c65640000000000000000000000000000000000600082015250565b60006115c9600f83611582565b91506115d482611593565b602082019050919050565b600060208201905081810360008301526115f8816115bc565b9050919050565b7f5265656e7472616e637947756172643a207265656e7472616e742063616c6c00600082015250565b6000611635601f83611582565b9150611640826115ff565b602082019050919050565b6000602082019050818103600083015261166481611628565b9050919050565b600060608201905061168060008301866114c2565b61168d6020830185611371565b61169a6040830184611371565b949350505050565b7f4e487b7100000000000000000000000000000000000000000000000000000000600052601160045260246000fd5b60006116dc82611367565b91506116e783611367565b92508282019050808211156116ff576116fe6116a2565b5b92915050565b600060608201905061171a60008301866114c2565b61172760208301856114c2565b6117346040830184611371565b94935050505056fea2646970667358221220996f1c80d7784b058dd09a1bddbbb36c17dd0f70e829cf4c1f5af8015c558ac164736f6c63430008110033",
  "immutableReferences": {},
  "source": "// SPDX-License-Identifier: MIT\r\npragma solidity ^0.8.7;\r\n\r\nimport \"@openzeppelin/contracts/token/ERC721/IERC721.sol\";\r\nimport \"@openzeppelin/contracts/security/ReentrancyGuard.sol\";\r\n\r\n// Check out https://github.com/Fantom-foundation/Artion-Contracts/blob/5c90d2bc0401af6fb5abf35b860b762b31dfee02/contracts/FantomMarketplace.sol\r\n// For a full decentralized nft marketplace\r\n\r\nerror PriceNotMet(address nftAddress, uint256 tokenId, uint256 price);\r\nerror ItemNotForSale(address nftAddress, uint256 tokenId);\r\nerror NotListed(address nftAddress, uint256 tokenId);\r\nerror AlreadyListed(address nftAddress, uint256 tokenId);\r\nerror NoProceeds();\r\nerror NotOwner();\r\nerror NotApprovedForMarketplace();\r\nerror PriceMustBeAboveZero();\r\n\r\ncontract Marketplace is ReentrancyGuard {\r\n    struct Listing {\r\n        uint256 price;\r\n        address seller;\r\n    }\r\n\r\n    event ItemListed(\r\n        address indexed seller,\r\n        address indexed nftAddress,\r\n        uint256 indexed tokenId,\r\n        uint256 price\r\n    );\r\n\r\n    event ItemCanceled(\r\n        address indexed seller,\r\n        address indexed nftAddress,\r\n        uint256 indexed tokenId\r\n    );\r\n\r\n    event ItemBought(\r\n        address indexed buyer,\r\n        address indexed nftAddress,\r\n        uint256 indexed tokenId,\r\n        uint256 price\r\n    );\r\n\r\n    mapping(address => mapping(uint256 => Listing)) private s_listings;\r\n    mapping(address => uint256) private s_proceeds;\r\n\r\n    modifier notListed(\r\n        address nftAddress,\r\n        uint256 tokenId,\r\n        address owner\r\n    ) {\r\n        Listing memory listing = s_listings[nftAddress][tokenId];\r\n        if (listing.price > 0) {\r\n            revert AlreadyListed(nftAddress, tokenId);\r\n        }\r\n        _;\r\n    }\r\n\r\n    modifier isListed(address nftAddress, uint256 tokenId) {\r\n        Listing memory listing = s_listings[nftAddress][tokenId];\r\n        if (listing.price <= 0) {\r\n            revert NotListed(nftAddress, tokenId);\r\n        }\r\n        _;\r\n    }\r\n\r\n    modifier isOwner(\r\n        address nftAddress,\r\n        uint256 tokenId,\r\n        address spender\r\n    ) {\r\n        IERC721 nft = IERC721(nftAddress);\r\n        address owner = nft.ownerOf(tokenId);\r\n        if (spender != owner) {\r\n            revert NotOwner();\r\n        }\r\n        _;\r\n    }\r\n\r\n    /////////////////////\r\n    // Main Functions //\r\n    /////////////////////\r\n    /*\r\n     * @notice Method for listing NFT\r\n     * @param nftAddress Address of NFT contract\r\n     * @param tokenId Token ID of NFT\r\n     * @param price sale price for each item\r\n     */\r\n    function listItem(\r\n        address nftAddress,\r\n        uint256 tokenId,\r\n        uint256 price\r\n    )\r\n        external\r\n        notListed(nftAddress, tokenId, msg.sender)\r\n        isOwner(nftAddress, tokenId, msg.sender)\r\n    {\r\n        if (price <= 0) {\r\n            revert PriceMustBeAboveZero();\r\n        }\r\n        IERC721 nft = IERC721(nftAddress);\r\n        if (nft.getApproved(tokenId) != address(this)) {\r\n            revert NotApprovedForMarketplace();\r\n        }\r\n        s_listings[nftAddress][tokenId] = Listing(price, msg.sender);\r\n        emit ItemListed(msg.sender, nftAddress, tokenId, price);\r\n    }\r\n\r\n    /*\r\n     * @notice Method for cancelling listing\r\n     * @param nftAddress Address of NFT contract\r\n     * @param tokenId Token ID of NFT\r\n     */\r\n    function cancelListing(address nftAddress, uint256 tokenId)\r\n        external\r\n        isOwner(nftAddress, tokenId, msg.sender)\r\n        isListed(nftAddress, tokenId)\r\n    {\r\n        delete (s_listings[nftAddress][tokenId]);\r\n        emit ItemCanceled(msg.sender, nftAddress, tokenId);\r\n    }\r\n\r\n    /*\r\n     * @notice Method for buying listing\r\n     * @notice The owner of an NFT could unapprove the marketplace,\r\n     * which would cause this function to fail\r\n     * Ideally you'd also have a `createOffer` functionality.\r\n     * @param nftAddress Address of NFT contract\r\n     * @param tokenId Token ID of NFT\r\n     */\r\n    function buyItem(address nftAddress, uint256 tokenId)\r\n        external\r\n        payable\r\n        isListed(nftAddress, tokenId)\r\n        nonReentrant\r\n    {\r\n        // Challenge - How would you refactor this contract to take:\r\n        // 1. Abitrary tokens as payment? (HINT - Chainlink Price Feeds!)\r\n        // 2. Be able to set prices in other currencies?\r\n        // 3. Tweet me @PatrickAlphaC if you come up with a solution!\r\n        Listing memory listedItem = s_listings[nftAddress][tokenId];\r\n        if (msg.value < listedItem.price) {\r\n            revert PriceNotMet(nftAddress, tokenId, listedItem.price);\r\n        }\r\n        s_proceeds[listedItem.seller] += msg.value;\r\n        // Could just send the money...\r\n        // https://fravoll.github.io/solidity-patterns/pull_over_push.html\r\n        delete (s_listings[nftAddress][tokenId]);\r\n        IERC721(nftAddress).safeTransferFrom(listedItem.seller, msg.sender, tokenId);\r\n        emit ItemBought(msg.sender, nftAddress, tokenId, listedItem.price);\r\n    }\r\n\r\n    /*\r\n     * @notice Method for updating listing\r\n     * @param nftAddress Address of NFT contract\r\n     * @param tokenId Token ID of NFT\r\n     * @param newPrice Price in Wei of the item\r\n     */\r\n    function updateListing(\r\n        address nftAddress,\r\n        uint256 tokenId,\r\n        uint256 newPrice\r\n    )\r\n        external\r\n        isListed(nftAddress, tokenId)\r\n        nonReentrant\r\n        isOwner(nftAddress, tokenId, msg.sender)\r\n    {\r\n        s_listings[nftAddress][tokenId].price = newPrice;\r\n        emit ItemListed(msg.sender, nftAddress, tokenId, newPrice);\r\n    }\r\n\r\n    /*\r\n     * @notice Method for withdrawing proceeds from sales\r\n     */\r\n    function withdrawProceeds() external {\r\n        uint256 proceeds = s_proceeds[msg.sender];\r\n        if (proceeds <= 0) {\r\n            revert NoProceeds();\r\n        }\r\n        s_proceeds[msg.sender] = 0;\r\n        (bool success, ) = payable(msg.sender).call{value: proceeds}(\"\");\r\n        require(success, \"Transfer failed\");\r\n    }\r\n\r\n    /////////////////////\r\n    // Getter Functions //\r\n    /////////////////////\r\n\r\n    function getListItem(address nftAddress, uint256 tokenId)\r\n        external\r\n        view\r\n        returns (Listing memory)\r\n    {\r\n        return s_listings[nftAddress][tokenId];\r\n    }\r\n\r\n    function getProceeds(address seller) external view returns (uint256) {\r\n        return s_proceeds[seller];\r\n    }\r\n}",
  "sourcePath": "C:\\Users\\Gunner\\Desktop\\Nueva carpeta (3)\\marketplace-api\\src\\smart-contracts\\contracts\\Marketplace.sol",
  "compiler": {
    "name": "solc",
    "version": "0.8.17+commit.8df45f5f.Emscripten.clang"
  },
  "schemaVersion": "3.4.9",
  "updatedAt": "2022-09-15T16:52:44.056Z",
  "devdoc": {
    "kind": "dev",
    "methods": {},
    "version": 1
  },
  "userdoc": {
    "kind": "user",
    "methods": {},
    "version": 1
  }
}